{
  "transactions": [
    {
      "hash": "0xccfd81248579bff0e9c518f2c7222610283f7d106c698b26622692a62161c574",
      "transactionType": "CALL",
      "contractName": null,
      "contractAddress": "0xe7f1725e7734ce288f8367e1bb143e90bb3f0512",
      "function": "initialize((address,address,uint24,int24,address),uint160)",
      "arguments": [
        "(0x0000000000000000000000000000000000000000, 0x5FbDB2315678afecb367f032d93F642f64180aa3, 3000, 60, 0x0000000000000000000000000000000000000000)",
        "79228162514264337593543950336"
      ],
      "transaction": {
        "from": "0xf39fd6e51aad88f6f4ce6ab8827279cfffb92266",
        "to": "0xe7f1725e7734ce288f8367e1bb143e90bb3f0512",
        "gas": "0x12afc",
        "value": "0x0",
        "input": "0x6276cbbe00000000000000000000000000000000000000000000000000000000000000000000000000000000000000005fbdb2315678afecb367f032d93f642f64180aa30000000000000000000000000000000000000000000000000000000000000bb8000000000000000000000000000000000000000000000000000000000000003c00000000000000000000000000000000000000000000000000000000000000000000000000000000000000000000000000000001000000000000000000000000",
        "nonce": "0x2",
        "chainId": "0x7a69"
      },
      "additionalContracts": [],
      "isFixedGasLimit": false
    }
  ],
  "receipts": [
    {
      "status": "0x1",
      "cumulativeGasUsed": "0xd876",
      "logs": [
        {
          "address": "0xe7f1725e7734ce288f8367e1bb143e90bb3f0512",
          "topics": [
            "0xdd466e674ea557f56295e2d0218a125ea4b4f0f6f3307b95f85e6110838d6438",
            "0xa24346159d0526da8dac757a49e25754cc97445e2fd5fa9d27fe4d0e24619f99",
            "0x0000000000000000000000000000000000000000000000000000000000000000",
            "0x0000000000000000000000005fbdb2315678afecb367f032d93f642f64180aa3"
          ],
          "data": "0x0000000000000000000000000000000000000000000000000000000000000bb8000000000000000000000000000000000000000000000000000000000000003c000000000000000000000000000000000000000000000000000000000000000000000000000000000000000000000000000000010000000000000000000000000000000000000000000000000000000000000000000000000000000000000000",
          "blockHash": "0x821dc257f7f69fbb42ce5d9bcb3de91a0e8e2eb7e3ddf800b6f7fe5a448b02cb",
          "blockNumber": "0x3",
          "blockTimestamp": "0x69ace34b",
          "transactionHash": "0xccfd81248579bff0e9c518f2c7222610283f7d106c698b26622692a62161c574",
          "transactionIndex": "0x0",
          "logIndex": "0x0",
          "removed": false
        }
      ],
      "logsBloom": "0x00000000000000000000000000000000000000000000000000000000000000000000000000000000000000000000000010000000000000000000000000000000000000000000000000000000000000000000000000000000000000000000000000000020020000000000000001800800000004000000000000000000000000000000000000000008000000000000000000000001000000000000000000200000000000000000000000000000000000000000000000000000000000000000000000000000000000000000000000001000000000000008000000040000000020000000000000000000000000000000000000000000000000800000000000000000",
      "type": "0x2",
      "transactionHash": "0xccfd81248579bff0e9c518f2c7222610283f7d106c698b26622692a62161c574",
      "transactionIndex": "0x0",
      "blockHash": "0x821dc257f7f69fbb42ce5d9bcb3de91a0e8e2eb7e3ddf800b6f7fe5a448b02cb",
      "blockNumber": "0x3",
      "gasUsed": "0xd876",
      "effectiveGasPrice": "0x315d771b",
      "blobGasPrice": "0x1",
      "from": "0xf39fd6e51aad88f6f4ce6ab8827279cfffb92266",
      "to": "0xe7f1725e7734ce288f8367e1bb143e90bb3f0512",
      "contractAddress": null
    }
  ],
  "libraries": [],
  "pending": [],
  "returns": {},
  "timestamp": 1772938059158,
  "chain": 31337,
  "commit": "be51b79"
}